:10000000D8290020615400007F160000BB160000B4
:10001000DF160000C31700000B1A000000000000EC
:100020000000000000000000000000004F1A000067
:10003000331E0000000000009F1F0000A31F0000EF
:100040001F2E0000FF2E0000013D00004B37000076
:100050005F3700009337000093450000C350000055
:10006000D7510000015400007D5400007F5400006F
:100070008154000083540000855400008754000020
:10008000895400008B5400008D5400008F540000F0
:1000900091540000935400009554000097540000C0
:1000A000995400009B5400009D5400000B47000031
:1000B0009F540000A1540000000000000000000058
:1000C000A3540000A5540000A7540000A954000048
:1000D000AB540000AD540000AF540000B154000018
:1000E000B3540000B5540000B754000000000000F5
:1000F00000000000B954000000000000BB540000E4
:1001000000000000000000000000000000000000EF
:1001100000000000000000000000000000000000DF
:1001200000000000000000000000000000000000CF
:1001300000000000000000000000000000000000BF
:1001400000000000000000000000000000000000AF
:10015000000000000000000000000000000000009F
:10016000000000000000000000000000000000008F
:10017000000000000000000000000000000000007F
:10018000000000000000000000000000000000006F
:10019000000000000000000000000000000000005F
:1001A000000000000000000000000000000000004F
:1001B000000000000000000000000000000000003F
:1001C000000000000000000000000000000000002F
:1001D000000000000000000000000000000000001F
:1001E000000000000000000000000000000000000F
:1001F00000000000000000000000000000000000FF
:100200002DE9F14FB2B09946924600230691CDE90F
:1002100000333C9A0F930DF14A0114914A7011E09A
:10022000329E57462C4617F8011B0698B047002807
:10023000069000F026810F98401C641E0F90F2D1AA
:100240003296AA449AF80000252808D100210022FD
:1002500009910A920B910C920D910E920FE06A4651
:100260004FF0FF31504601F07FF8050002D10F98A2
:1002700000F066BED4D50125E3E741F001011AF88C
:10028000010F2028F9D023280CD02B2804D02D28AA
:1002900005D0302809D00BE041F00201EFE741F032
:1002A0000401ECE741F00801E9E741F01001E6E75D
:1002B0002A280FD1D9F8002052F8040BC9F80020E1
:1002C0000028119003D54042119041F004010AF139
:1002D000010A14E01192DFF8EC3B0AE01198984211
:1002E00005DA00EB800402EB4402303A11920AF185
:1002F000010A9AF80020A2F130000A28EED39AF8F9
:1003000000002E2803D04FF0FF32109229E01AF897
:10031000010F2A2809D1D9F8000050F8042BC9F898
:10032000000010920AF1010A1BE02D280CBF0AF10F
:10033000010A002000221092DFF8882B0BE040B960
:10034000109B934205DA03EB830504EB4504303C34
:1003500010940AF1010A9AF80040A4F130030A2B24
:10036000EDD3ADF848100FF660309AF8001001F0A8
:1003700005F808B11AF8010B8DF84A009DF84A00FB
:10038000682805D19AF8000068280CD1622106E09F
:100390006C2804BF9AF800006C2804D171218DF8F4
:1003A0004A100AF1010A1FA808901AF801BBBBF114
:1003B00025012DD01C3900F06181091F022940F26E
:1003C0005D810E392AD0491F00F0B384093900F04D
:1003D0005581891E00F04985491E00F0F584491EAB
:1003E000022940F24B81091F00F0EE84491F00F002
:1003F000BA80491E00F09D84491E65D0C91E21D0D7
:10040000891E00F09684C91E00F0938400F04CBD54
:1004100025238DF87C30012109912AE06C208DF88C
:100420004A00D9F8000050F8042BC9F80000002A4F
:1004300043D11499487800283DD04FF0FF340FF68F
:10044000902012E09DF84A006C28EAD0D9F800000C
:1004500050F8044BC9F800000794D4B914994878AF
:1004600098B14FF0FF340FF6842000F0A1FF201A5E
:1004700007D132981FAA04A900F065FD00287FF576
:10048000E1AE4FF0FF3000F05BBD0FF67C2007902F
:10049000EFE7109D002D04D5204600F0A9FF04468B
:1004A00007E02A46204600F0ADFF002814BF041BD9
:1004B0002C460A94DDE70FF65422329804A900F086
:1004C000C8FD0028D5D5DCE7D9F8001051F8040B99
:1004D000C9F8001020F00004002121F0FF351FAB07
:1004E000CDE904450793DDE9042308993C2413B9B9
:1004F0000AB9109898B102F00F053035641EEEB2BB
:100500003A2EA8BF2735120942EA03721B090D557E
:1005100008BF002A03D007980D19A842EBD3081989
:100520000790C4F13C0210980A92824209DABDF8A1
:100530004810821A4FF6EF7001400C92ADF8481047
:1005400097E7002895D59DF8480000F01400102882
:100550008FD1119B09990C985B1A1B1A9A1A002AC1
:1005600087DD0C9285E71499487820B14FF0FF346D
:100570000FF69C1079E79DF84A00622862D068283F
:1005800019D06A2840D06C2806D071284DD0742824
:100590002DD07A281ED064E0D9F8001051F8040B51
:1005A000C9F8001020B94FF0FF340FF67C105CE75B
:1005B0000F9901605DE7D9F8001051F8040BC9F8F4
:1005C000001020B94FF0FF340FF65C104DE70F9983
:1005D00001804EE7D9F8001051F8040BC9F800105B
:1005E0000028E5D14FF0FF340FF63C103DE7D9F875
:1005F000001051F8040BC9F800100028D8D14FF0B2
:10060000FF340FF6241030E7D9F8001051F8040B2E
:10061000C9F8001020B94FF0FF340FF60C1024E792
:100620000F9AD317C0E9002323E7D9F8001051F837
:10063000040BC9F800100028F2D14FF0FF340FF678
:10064000E80012E7D9F8001051F8040BC9F80010BF
:1006500020B94FF0FF340FF6D00006E70F99017074
:1006600007E7D9F8001051F8040BC9F8001000286A
:100670009ED14FF0FF340FF6B000F6E6D9F8002017
:10068000D21D22F00702C9F80020D2E90001083289
:10069000C9F80020CDE90401C80F02D009982D2126
:1006A0000AE0BDF84800810702D509982B2103E034
:1006B000C00705D5099820211FAA1154401C099094
:1006C000DDE9042309991FA8CDE92E2308444BF046
:1006D00020016129079015AC0BD01099002902D593
:1006E0000621109105E001BF4BF02001672901228E
:1006F0001092DDE9042359004915491C10D11A0351
:100700000ED0ABF1610503211A2D0A9102D20FF62A
:10071000A43101E00FF6A031032200F09FFEA8E60D
:1007200059004915491C0AD11A0308D1ABF16105DA
:1007300003211A2D0A9116D30FF68431ECE7DDE977
:100740000401CDE93001DDE9302323F00047B7F59E
:10075000801F22F000060DD20022002F08BF002EBD
:10076000029203D116E00FF65431D5E702AA00F049
:1007700081FE0FE0DFF8EC0ADFF8EC1A00EB17500F
:100780000290DDE930234FF0FF301940DFF8DC7ACA
:1007900010403943CDE904014BF0200061280DD110
:1007A000079830210170821CBBF1610F07920CBFCA
:1007B0007821582141700998801C0990DDE90401D5
:1007C00020F0000231F0004308BF002A02D10026C9
:1007D000002571E14BF02008B8F1610F40F0BE80B8
:1007E0001098002847BF21210391401C0390039FCC
:1007F000DDE92E017F1C00220023DDE9044500F025
:1008000071FE02998DF8542038BF85F00045091F0C
:10081000002F02910DF155065DDDDFF8541ACDE988
:10082000302140F2FF732E932046294600220023F8
:1008300000F070FE4FD24800400D00F11C0215D0B0
:10084000002A13DD2E9B9A420ADBDDE9300121F0FC
:10085000004205F000400243DDE93001114611E09D
:100860006FF31E5141EA025120460BE024F00000D4
:1008700035F0004108BF00280FBF29461C22294639
:1008800000F060FE04460D4600F0FAFEFF1F002F48
:10089000804609DD00F012FF02460B46204629463D
:1008A00000F01EFF04460D46F01D0721B8F1000FB1
:1008B0000CDD491E5EBF08F00F0200F8012D4FEA63
:1008C0002818F3D502E0002200F8012D491EFAD5C0
:1008D000C61D002FA8DC0DF15500361A039886427C
:1008E000D8BF304600280DF1550430D4B04206DAA6
:1008F0000DF155010A5C082AA8BF0F2100DA00217A
:10090000024615AB134400E0401E13F80159521E75
:100910008D42F9D00F2904D10DF155018B5C5B1C80
:100920008B54002A04D50299091D15AC401C029174
:10093000411E0CD46218ABF13A0613783033DDB2A5
:100940003A2DA8BFF318491E02F80139F5D51099C0
:10095000002940F1AF80421E1092ABE00299DFF80F
:10096000142947F29750414391FBF2F2DDE92E45FD
:10097000029225F00045D2F1070204DD2046294607
:1009800000F04CFC0BE052420020DFF8EC1800F0C5
:1009900045FC02460B462046294600F013FF04465C
:1009A000B8F1660F109806BF029F0A3706273F1856
:1009B000142FC8BF142730208DF854000D46002096
:1009C000DFF8B818CDE92E010DF15506002F33DD03
:1009D0002046294601F01AF801460A4606F10803A6
:1009E00004200A26B2FBF6F606EB860EA2EB4E02B8
:1009F000303203F8012C0A22B6FBF2F202EB820E2F
:100A0000A6EB4E063036401E03F8026DE9D1083FD2
:100A1000002F03F10806D9DD084601F00BF8024665
:100A20000B462046294600F05BFEDDE92E2301F04F
:100A30000FF804460D46CBE70DF15500361A0DF1BF
:100A4000550404E00298401E761E0290641C207833
:100A50003028F7D0B8F1660F02D10299491C04E0A2
:100A6000B8F1650F0CBF01210021109808188642CB
:100A7000B8BF701E00281DD4B04204DA215C3429AE
:100A8000C8BF392100DC30210246631E9D1800E0FA
:100A9000401E15F80169521E8E42F9D0392902D143
:100AA000A15C491CA154002A04D50299491C1C468A
:100AB000401C02910646029D00F05AFC406A0778ED
:100AC000DDF8408030B2002802DC01260FF2F47419
:100AD0004BF02000662808BF6D1C16D0672846D151
:100AE00028B210F1040F48DB404546DA9DF8480073
:100AF0006D1C010703D430B24045B8BF804628B210
:100B0000B8EB000848BF4FF000080FFA85FB0798C4
:100B10000A99BBF1000F00F3B2804A1C0A923023FD
:100B20004354B8F1000F03DC9DF84800010704D5D9
:100B30000A98411C0A9107990F5418EB0B0FB8BF84
:100B4000C8F100052DB268420D90A84432B290451C
:100B5000B8BF4646079B0A9836B20B9632462146E6
:100B6000184400F07BFCA8EB06000E90CBE0BBF134
:100B7000610F17D14FF0700B19E030B2404504DA25
:100B80009DF848100A0758BF8046B8F1010848BFD1
:100B90004FF00008BBF1670F14BF4FF0450B4FF04B
:100BA000650B04E0BBF1410F08BF4FF0500B0A98F2
:100BB000411C0A91B8F1000F079914F8012B0A544F
:100BC00003DC9DF8480001071AD50A98411C0A91D8
:100BD000B8F1000F07990F5412DD761E30B2804530
:100BE00007980A9BB8BF464632B22146184400F027
:100BF00035FC0A9936B271180A91A8EB06000D90DF
:100C000007980A9908442AB2002A80F800B003D451
:100C10002B224270811C04E02D2141701546811C5D
:100C20006D4200202EAA0A2409E02B4693FBF4F51E
:100C300005EB8506A3EB460302F8013B401C2DB2F1
:100C4000002DF2DC012806DC4BF02002652A04BFEF
:100C5000302201F8012B00282EAA08D1302001F8FB
:100C6000010B06E0401E135C303301F8013B002805
:100C7000F8DC079A0A981044091A0B9143E00844DB
:100C800031B22AB2914219DA32B2214600F0E6FBC3
:100C90000A9936B27118ABEB0606B8F1000F0A914B
:100CA0000D9603DC9DF84800020704D507984754C9
:100CB0000B99491C0B91CDF8388024E0214600F0B7
:100CC000CDFB0A98761B5844B8F1000F0A9003DC5C
:100CD0009DF848100A0703D5411C0A9107990F5443
:100CE00030B2804507980A9BB8BF464632B204EB43
:100CF0000B01184400F0B2FB0A9836B230180A9083
:100D0000A8EB06000D909DF8480000F01400102894
:100D10007FF4AFAB099A0A990D988A180B9982183B
:100D20000E988A18821811988242BFF6A2AB821AD6
:100D300017E49DF84A00622808D068280ED06A2877
:100D400014D06C281FD0712810D01CE0D9F80010E6
:100D500051F8040BC9F80010C0B21AE0D9F800101D
:100D600051F8040BC9F8001080B212E0D9F8002045
:100D7000D21D22F00702C9F80020D2E90001083292
:100D8000C9F8002006E0D9F8001051F8040BC9F8A2
:100D900000100021CDE904019DF8480001075AD553
:100DA000DDE90423002B08BF002A54D04BF02000BB
:100DB000782850D109981FA930220A54401C431C9E
:100DC000099301F800B046E09DF84A00622808D077
:100DD00068280ED06A2814D06C281FD0712810D033
:100DE0001CE0D9F8001051F8040BC9F8001040B20B
:100DF0001AE0D9F8001051F8040BC9F8001000B23D
:100E000012E0D9F80020D21D22F00702C9F8002014
:100E1000D2E900010832C9F8002006E0D9F8001034
:100E200051F8040BC9F80010C117CDE904010029DD
:100E300002D509982D210AE0BDF84800810702D5A6
:100E400009982B2103E0C00705D5099820211FAA86
:100E50001154401C09901FA809990144079104A846
:100E6000594600F056F9FFF704BB9DF84A006C287C
:100E70000BD001210991D9F8000050F8041BC9F8E2
:100E800000008DF87C10FFF7F4BAD9F8000050F894
:100E9000041BC9F8000015914FF0FF321092002199
:100EA000169115AAFFF709BB25210122BBF1000FFE
:100EB0008DF87C1009923FF4DCAA8DF87DB00221F8
:100EC000FFF7AABACBCCCC0C686A6C747A4C0000E1
:100ED0007072696E74665F733A2062616420256C7B
:100EE0007320617267756D656E7400007072696E53
:100EF00074665F733A2062616420257320617267B3
:100F0000756D656E740000000000000000000000B8
:100F10007072696E74665F733A20256E206469731F
:100F2000616C6C6F776564007072696E74663A20EC
:100F300062616420256E20617267756D656E740054
:100F400033B0BDE8F08F2DE9FC410F4606469046D0
:100F50007A6B7869396ABC6A121AB869521A796A66
:100F6000121AF869521A121A97F83800141B41071E
:100F70000FD42020002C8DF800000ADD2546012327
:100F80006A463946304600F07DF900285DD16D1E75
:100F9000F5D17B6942463946304600F073F90028A6
:100FA00053D130208DF800003D6A002D09DD01236A
:100FB0006A463946304600F065F9002845D16D1E75
:100FC000F5D1BB69FA683946304600F05BF9002874
:100FD0003BD130208DF800007D6A002D08DD012313
:100FE0006A463946304600F04DF970BB6D1EF6D1A9
:100FF000F868B969FB6942183946304600F042F991
:1010000018BB30208DF80000BD6A002D08DD0123DB
:101010006A463946304600F035F9B0B96D1EF6D152
:1010200097F8380041070DD52020002C8DF80000DE
:1010300008DD01236A463946304600F023F920B91D
:10104000641EF6D10020BDE8F6814FF0FF30BDE808
:10105000F6812DE9F8470D46A3B02F6B002F82468D
:10106000904648BF6FF0004700F0C3FD696B401821
:1010700001AA0021C2E90011812828BF4FF0FF30EA
:1010800044D289461EE0A74230DB686920188128D7
:101090000BD30021696303AA29465046FFF753FF8B
:1010A0005FEA000922D40020686103AB6E69224622
:1010B0006946981900F0D2F9A6196E6158F8040B28
:1010C000A0B13F1B002F11DDD8F8001001AA68461F
:1010D00000F04CF90446002C05D4D8F80000002894
:1010E000D1D1641ECFD54FF0FF390EE0B9F1000F1A
:1010F000504604D103AA2946FFF725FF8146B9F1DE
:10110000000F02D1002068616863484624B0BDE842
:10111000F0872DE9FC4307466F293E6908BF082484
:1011200005D041F02000782814BF0A2410243C2563
:10113000D7E90023642918BF69299046994605D14B
:10114000002B03D5D8F1000869EB4909B9F1000F6C
:1011500008BFB8F1000F0CD1386B50B9082C39D149
:1011600097F83800010735D530203B2586F83B003D
:1011700030E08DF80010404649462246E31700F063
:101180003DFD3032D0B26D1E3A28019504DB9DF84A
:101190000000A0F151018A18725540464946224686
:1011A000E31700F02BFD80465FEA010908BFB8F1A4
:1011B000000F03D0F86871198842DCD3082C09D1DC
:1011C00097F83800010705D5705D302802D06D1EF4
:1011D00030207055C5F13C02BA617119F960386B65
:1011E000824208DA821A3A624FF6EF70398F014074
:1011F0003987BDE8F38300280ED597F8380000F052
:101200001400102808D17B6B7969386A5B1A1B1AA5
:101210009A1A002AC8BF3A62BDE8F3832DE9D04389
:1012200006460F4614464FF00008DFF8549012E0CF
:10123000E00707D542464B463046394600F008FCE9
:1012400006460F464046494642464B4600F000FCE3
:10125000641080468946002CEAD130463946BDE804
:10126000D083000002FCFFFFFFFF0F800000E03F83
:101270000000F07FA08601000000F03F84D7974176
:1012800000002440F8B505460E4617461C460020CF
:101290005CB117F8011BB068A847B06030B1F06AC4
:1012A000401CF0620020641EF3D1F2BD4FF0FF300D
:1012B000F2BD00006E616E004E414E00696E660028
:1012C000494E4600300030B4002513E050F8042B9E
:1012D000D30744BFA9F101039A18091F042942F852
:1012E000045BFAD213468C0744BF15809B1CC907C8
:1012F00048BF1D7050F8041B0029E7D130BC70476F
:101300001C48704770B45368D41801E05B1C491E38
:10131000042B08DA00291FBF057804F8015B10F8D8
:10132000016B002EF2D1536070BC704738B5144683
:101330001D4661B1FFF7E6FF61686A6B2046904782
:101340006FF00102811A02D0491E01D001E003E0D2
:1013500005E00021616032BD6FF0010032BD4FF049
:10136000FF3032BDDA6B1047024BDFE7014BF9E784
:1013700001487047BC00002084000020C9B20278F8
:101380008A421AB11CBF10F8012FF9E718BF0020DC
:101390007047B1F5807F02D34FF0FF307047017086
:1013A000012070470078401E8041C043C00F704745
:1013B00080B500B906A005490B681BB122220021A7
:1013C000984701E000F032FD222002BDCC09002048
:1013D000636F6E73747261696E742068616E646CA1
:1013E00065723A20626164206D65737361676500A0
:1013F00000F1010310F8011B11B110F8011BFBE70C
:10140000C01A7047C9B2830706D0521E22D310F803
:10141000013B9942F7D11FE0083A13D302F10402CD
:1014200041EA012141EA014150F8043B121F21BF6A
:101430004B40A3F1013C2CEA030C1CF0803FF3D09D
:10144000C9B2001F083210F8013B521E28BF91EAB2
:10145000030FF8D818BF0120401E70474AB10000A2
:1014600011F8013B521E00F8013B1CBF11F8013B73
:10147000F8E7704710B5144600F002F8226010BD7E
:10148000C1F30A5343B14A0012F5001F28D2A3F258
:10149000FE32A1EB0251704750EA410C20D001F01E
:1014A000004C31EA0C01B1FA81F204BFB0FA80F3CA
:1014B000D2180B3AB2F120032CBF00FA03F191408D
:1014C00041EA0C013EBFC2F1200C20FA0CF3194393
:1014D0009040524240F2FD33D21A01EB0351704763
:1014E000002270474FF4001C1CEB410F94BF1CEB13
:1014F000430F09E041EA030C50EA4C0C52EA0C0C91
:1015000003D2994208BF9042704714BF8B42824277
:1015100070472E004FF4001C1CEB410F94BF1CEBD6
:10152000430F09E041EA030C50EA4C0C52EA0C0C60
:1015300003D28B4208BF8242704714BF9942904247
:1015400070474300124254D440F2FF7C1CEA11530E
:101550000FD0634531D09B1863453CBF01EB02516E
:10156000704701F0004141EA0C510020AFF30080C8
:10157000704750EA410320D001F0004C91EA0C0181
:101580001CD0B1FA81F30B3B9A420DD9D21A994083
:1015900051EA0C01C3F1200C20FA0CFC6144984084
:1015A000531C40F2FF7CD7E7914041EA0C01C2F1A5
:1015B000200C20FA0CF3194390407047B0FA80F3E6
:1015C0001533202BE0D3202AEED3203A203B9A4239
:1015D00009D9D21A00FA03F141EA0C010020531C88
:1015E00040F2FF7CB8E700FA02F141EA0C0100206A
:1015F0007047524240F2FF7C1CEA11530DD0634504
:10160000DBD0B2EB030C3CBFA1EB025170470CF1F5
:10161000010221EA035141F4801150EA410CCCD07F
:1016200001F0004C352A27DC30B481EA0C01B2F11C
:10163000200309DAC2F12003044601FA03F5D04081
:101640002843D1409C400CE0C3F12002450020FA21
:1016500003F418BF44F0010421FA03F091400C4355
:10166000002174F1004550F1000051EB0C012442BF
:1016700030BC7FF47BAF70476146002076E7FEE721
:10168000C1F30A5340F2FE329B1A14DDD3F120035A
:101690004FEAE17208DDC90241EA505141F00040D1
:1016A000D84080185040704703F2E13010B1D24367
:1016B00082F00040704700207047FEE7C11768B114
:1016C0004840401AB0FA80F29040D21CC907C2F5D7
:1016D000846241EA025202EBD02140057047FEE7E6
:1016E00070B44FF0004591EA030F40F1A3836B40C3
:1016F000841A71EB030603D2001BB1411219734126
:101700004FF4001C1CEB410F34BF7CEB430442E060
:101710000C0DA4EB1356352E4FDC45EAC323DB0A30
:1017200045EAC121C912B6F120050DDD63FA05F6BF
:10173000EB4086EA0305124218BF45F00105C018C8
:1017400051F100010CD213E062FA06F5F240554067
:10175000F3415A40B340F3405A408018594107D3EF
:1017600049085FEA30005FEA350528BF45F001050A
:1017700001F58011420875F1004250F1000041EB83
:1017800004514E0016F5001F70BC38BF7047002092
:10179000090D090570471CEB410F10D252EA4306B0
:1017A0000BD0BCEB410F05D80C0DAB43661E342E9D
:1017B000B6DD02E0AB438018594170BC704770BC85
:1017C0007047FEE7F0B540F2FF7581EA030C0CF0BC
:1017D000004C15EA11541DBF15EA1357AC42AF4235
:1017E000E5E0BC41C1F31301C3F31303801A99412F
:1017F00043F4801304D2641E4000494180185941CB
:10180000C90241EA5051B1FBF3F603FB1611A2FBEA
:101810000675D7EBC020A94102D2761E8018594127
:10182000C90241EA5051B1FBF3FE03FB1E11A2FBBA
:101830000E75D7EBC020A94103D2AEF1010E80187E
:101840005941890241EA9051760546EA8E2EB1FB54
:10185000F3F603FB1611A2FB0675D7EB8020A94116
:1018600002D2761E80185941C90241EA50514EEA0F
:10187000060EB1FBF3F603FB1611A2FB0675D7EBC0
:10188000C020A94102D2761E80185941C90241EAFE
:101890005051B1FBF3F703FB1711A2FB0735D3EB54
:1018A000C020A94167F100070CBF004247F00107C3
:1018B00066F3D5274FEA1E31B80814F5806412DDAF
:1018C000BD0775F1004250EB0E5051EB045111F57C
:1018D000801F5CBF41EA0C01F0BD4CF07F6141F01C
:1018E000E0410020F0BDBD076D0840EA0E5041F414
:1018F0008011D4F10104B4F120060ADAC4F1200603
:101900000200E04001FA06F3E1401843B2401543FB
:101910000EE0342C13DCC6F1200445EA40056D08C6
:1019200020FA06F2154321FA06F0A1400D430021EA
:1019300075F1004250F1000051EB0C01F0BD0020A8
:101940005FEA0C01F0BDCFB992185B41B3FA83F79F
:1019500004BFB2FA82F6BF190B3FB7F120062FBFC2
:1019600002FA06F3BB40C7F1200622FA06F638BF9A
:101970003343BA401CB1E419641E33E77F4231F0AF
:101980000041B1FA81F404BFB0FA80F6A4190B3C0F
:10199000B4F120062FBF00FA06F1A140C4F12006E1
:1019A00020FA06F638BF3143A0403C1B1AE7AC4290
:1019B0001ABF05EA1357AF4212E050EA41061CBFB6
:1019C00052EA4306BFE750EA4107304661461CBF72
:1019D00041EA0551F0BD52EA430C08BFC143F0BDD6
:1019E00000204FF4001616EB410F98BF16EB430F83
:1019F00008BF16EB410F24BFC14305E016EB430FB0
:101A00000CBF61464CEA0551F0BDFEE7400D491898
:101A100040EA81200CD2490DA1F58061491C40F0BB
:101A2000004005DBD1F11F0154BFC840C01770470B
:101A300000207047014648B1B0FA80F18840C91CC7
:101A4000C1F58461090501EBD02140057047FEE72F
:101A5000B0B581EA030C0CF0004C40F2FF7515EABA
:101A600011541DBF15EA1357AC42AF4239E0E419D7
:101A700023EA455343F48013C90241F0004141EA8F
:101A8000505EC7021100A7FB020200284FF00000C1
:101A9000EEFB01204FF00001E3FB072118BF42F0ED
:101AA0000102401800214941E3FB0E01A4F58064C6
:101AB0000F0302D252004041494154F101046CDD50
:101AC000470872F1004250F1000051EB0451A1F5BA
:101AD00080115CBF41EA0C01B0BD4CEA0551002009
:101AE000B0BD05EA1357AC4214BFAF4241E050EA23
:101AF000410E1CBF52EA430E02E061460020B0BD19
:101B000024423C441BD15FEA070EF6D0090302BF12
:101B100001460020AEF1140EB1FA81F7AEEB0704D6
:101B200001FA07FE0C37C7F1200100FA07F7C84099
:101B30004EEA000E23EA455343F48013A2E733F044
:101B40000043B3FA83F704BFB2FA82FE77440B3F37
:101B5000E41BB7F1200E2FBF02FA0EF3BB40C7F112
:101B6000200E22FA0EFE38BF43EA0E03BA40641C70
:101B700082E750EA410E14BF52EA430E6FF00001B3
:101B80004FF4001717EB430F8ABF194617EB410FAD
:101B9000B5E74CEA05510020B0BDD4F10104B4F121
:101BA00020070FDAC4F12007520828BF42F00102D3
:101BB00010FA07F501FA07F7E1BF2A43E04038437E
:101BC000E1400FE0352C98DCC7F1200452EA4002D6
:101BD00020FA07F218BF42F0010231FA07F0A140E3
:101BE0000A43002172F1004250F1000051EB0C0158
:101BF000B0BD80B5FFF784FB006C02BDBBBBE1B19B
:101C0000B2F5803F80F07E80022A1ED98C46B1FB5F
:101C1000F2F102FB11C31B0443EA1043B3FBF2FCD5
:101C200002FB1C3380B240EA0343B3FBF2F002FB39
:101C3000103240EA0C4000237047022A05D984463E
:101C4000B0FBF2F002FB10C270474AB105D100F0C0
:101C5000010249085FEA3000704700220023704704
:101C600000F09EB90B000200002100207047904256
:101C700071EB030CF6D3B3F5803F2FD2F0B5B3FA76
:101C800083F7B1FA81F4A7F10F0E3D1B5340CEF15B
:101C9000200602FA0EF2F3415340B5F10F0746D881
:101CA0000F3C2C444140C4F12006A040F14141408A
:101CB000B1FBF3F603FB1611A2FB0645001BA9417D
:101CC00002D2761E8018594180EA010221FA0EF3F1
:101CD00062FA0EF200215A403046F0BD30B4B1FB3A
:101CE000F3FC03FB1C11A2FB0C45001BA94103D212
:101CF000ACF1010C8018594130BC02460B466046DD
:101D000000217047B2F1807F65D3F0B5B2FA82F757
:101D1000B1FA81F4C7F10F063D1B22FA06F307F171
:101D2000110EF24120355A40B5F10F07B8D94140A4
:101D3000C4F12006A040F1414140B1FBF3FC03FB9C
:101D40001C11A2FB0C45001BA94103D2BCF1010CE4
:101D5000801859410F2F12D30F3FC90341EA504158
:101D6000B1FBF3F603FB1611A2FB0645D4EBC03022
:101D7000A94102D2761E8018594146EACC3C07B3ED
:101D80004140C7F12006B840F1414140B1FBF3F6B4
:101D900003FB1611A2FB0645001BA94102D2761EC9
:101DA0008018594180EA010221FA0EF3C7F120049C
:101DB00062FA0EF20CFA07F05A402CFA04F13043A2
:101DC000F0BD80EA010221FA0EF3002162FA0EF260
:101DD00060465A40F0BD8C46B1FBF2F102FB11C3E4
:101DE0001B0243EA1063B3FBF2FC02FB1C331B0231
:101DF0004CEA002043EA1063B3FBF2FC02FB1C3305
:101E00001B024CEA002043EA1063B3FBF2FC02FB26
:101E10001C331B024CEA002043EA1063B3FBF2FCC4
:101E200002FB1C324CEA002000237047012000F026
:101E3000B9B8FEE7841A71EB030604D26E40001BAA
:101E4000B141121973414FF4001C1CEB410F34BF18
:101E50007CEB430683E00C0DA4EB1356362E00F307
:101E60007C80012E45EAC32341DC43EA525312BF72
:101E7000D20292025B08240545EAC12141EA505191
:101E8000D2EBC020994125D407D1B0FA80F610FAE0
:101E900006F162D00020203608E0B1FA81F6B140A8
:101EA000C6F1200220FA02F21143B0404FEAF47466
:101EB000B4EB465434F001064FEA74040AD8D6F560
:101EC0000016760D04F00044F04061FA06F250402E
:101ED000F1404840C00A40EA415021F0004128BF8B
:101EE0005FEA500550F1000044EBD12135E0DB0AF8
:101EF00045EAC121C90AB6F120050EDD42EA0242D7
:101F0000120CC5F1200603FA06F6EB4042EA06057C
:101F10006D42984161F100010DE062FA06F5F24070
:101F2000554063FA06FC82EA0C02F3405A406D42C7
:101F3000904161EB030111F4801F05D1641E62051D
:101F400002D06D004041494121F48011430875F1F0
:101F5000004350F1000041EB045170BC70471CEB92
:101F6000410F15D223F0004352EA43060BD04FEA4B
:101F70004C0CBCEB410F04D80C0D661E342EB7DDA3
:101F8000EBE7801A994150EA410608BF0021E4E7D7
:101F900008BF1CEB430F28BF6FF00001DDE7FEE731
:101FA0007047FEE72021090326311820ABBEF9E770
:101FB00010B5DFF8104700212176002000F0C1FDA8
:101FC000608140F662112520A073A180002020725C
:101FD00010BDDFF8F406DFF8EC26016840681075E4
:101FE000030A43F0C003080E5375D0740B0C080AA3
:101FF000937450741174704780B500F00CFEDFF8D4
:10200000C406002103220172427001BD3EB5DFF813
:10201000BC46204600F050FE04F1240000F04CFEC7
:1020200083A50FF2C462294604F1480000F044FE83
:1020300004F16C0000F040FE7EA10FF2B46000F0ED
:102040003BFE0FF2DC610FF2C06000F035FE0FF2D4
:10205000F4610FF2D86000F02FFE29460FF2F06015
:1020600000F02AFEDFF85C06017C427CC37C029112
:102070000192817C027D0091417D04F19C0000F081
:102080001BFE0FF2FC610FF2E06000F015FE0FF294
:10209000007000F011FEBDE83E400FF20C7000F041
:1020A0000BBE80B50FF2187000F006FE0FF2207024
:1020B00000F002FE0FF2287000F0FEFD0FF230700B
:1020C00000F0FAFD0FF2407000F0F6FD0FF25070D4
:1020D00000F0F2FD0FF2607000F0EEFD0FF26C7098
:1020E00000F0EAFD0FF2787000F0E6FD0FF2847068
:1020F00000F0E2FD0FF2947000F0DEFD0FF2A4702C
:1021000000F0DAFD0FF2B47000F0D6FD0FF2BC70F3
:1021100000F0D2FD0FF2C47000F0CEFD0FF2CC70D3
:1021200000F0CAFD0FF2D07000F0C6FD0FF2D470BF
:1021300000F0C2FD0FF2E07000F0BEFD0FF2E8709B
:1021400000F0BAFD0FF2EC7000F0B6FD0FF60000E3
:1021500000F0B2FD0FF6140000F0AEFDBDE8024045
:102160000FF6140000F0A8BD3EB5DFF85855DFF8B3
:102170006045287C697CEB7C2A7D02900191A87CDB
:10218000697D0090204600F097FDE9690FF2F47038
:1021900000F092FD287E00F0D4FC014669810FF228
:1021A000FC7000F089FDA97B0FF6080000F084FDAB
:1021B000A9880FF6180000F07FFDA87830B101283B
:1021C00007D0022808D0FE2809D00CE00FF6140032
:1021D00007E00FF6240004E00FF6340001E004F1FC
:1021E0002C0000F069FDBDE83E400FF63C0000F019
:1021F00063BD10B501290A460BD0032903D0082975
:1022000007D00A2913D141780D2904BF81780A2902
:102210000DD1DFF8C0341978012908D001241C70D1
:102220005A700146BDE81040181DFFF717B910BDE0
:102230004E4100004C4453002DE9F84FDFF8845420
:102240000121697200260278297E00242B2AA046EB
:10225000A14640F6621740F68A1A4FF41B6B00F055
:102260008A812D2A00F09981312A00F04081322A9A
:1022700000F04481332A00F04881342A00F04B8179
:10228000352A00F04F81362A00F04F81372A00F0BE
:102290004F81382A00F04F813C2A00F093813E2A7A
:1022A00000F09D81612A41D0622A51D0632A5DD01D
:1022B000642A6CD0652A77D0662A00F08380672A6A
:1022C00000F09080682A00F09880692A00F09D80D4
:1022D0006A2A00F0A2806B2A00F0AC806C2A00F021
:1022E000B6806D2A00F0C5806E2A00F0CD806F2A7E
:1022F00000F0D680702A00F0E280712A00F0E280BF
:10230000742A00F0EF80752A00F01781762A00F019
:102310001881772A00F01B81782A00F0DF80792A63
:1023200000F01B817A2A00F01E8167E1287A0028DC
:102330000DD10121297201240FF2844000F0BCFC70
:10234000FE21A970AF800120A8730221697059E1B4
:10235000287A0028FBD1012129720FF2744000F085
:10236000ABFCFE20A870A5F804A00CE0287A002899
:10237000EDD1012129720FF2684000F09DFCFE2092
:10238000A870A5F804B00121A97302206EE0287A94
:102390000028DCD1012129720FF2544000F08CFC9E
:1023A0000220A870AF801AE0287A0028CFD101213E
:1023B00029720FF2544000F07FFC0220A870A5F8AB
:1023C00004A00CE0287A0028C1D1012129720FF263
:1023D000504000F071FC0220A870A5F804B025213F
:1023E000A97343E0287A002842D1012129720FF213
:1023F000484000F061FCAC701AE0287A002837D120
:10240000012129720FF244401BE0287A00282FD1C5
:10241000012129720FF2484020E0287A002827D1B4
:10242000012129720FF24C4000F046FC0120A870F7
:10243000AF8018E0287A00281AD1012129720FF202
:102440004C4000F039FCAC70A5F804A00BE0287AF1
:1024500000280DD1012129720FF2484000F02CFC18
:10246000AC70A5F804B02521A9730220687001247E
:10247000C8E0287A0028FBD1012129720FF23C40E4
:1024800000F01AFCAF8016E0287A0028F0D1012174
:1024900029720FF2384000F00FFCA5F804A00AE002
:1024A000287A00280AD1012129720FF2304000F069
:1024B00003FCA5F804B0012068708046A2E0FFF795
:1024C00053FE9FE0287A012803D12C720320687004
:1024D0000126FFF79BFDFFF7E4FD8FE00FF2505060
:1024E00000F0EAFB2C7203216970012688E000F0FD
:1024F0006CFC00F03AFC0FF23C4039E000F05DFC6F
:1025000000F047FC0FF2484032E00FF2604000F06C
:10251000D3FB012004E00FF2604000F0CDFB02206D
:1025200068766FE00FF21C5022E00FF234501FE08B
:102530000FF248501CE068481AE0EC610FF25C5062
:1025400016E041F28830E8610FF25C5010E042F290
:102550001070E8610FF25C500AE043F69820E861E1
:102560000FF25C5004E046F2A810E8610FF25C50F4
:1025700000F0A2FB46E041B1481E28764FF0010969
:10258000297A012904BF01260124287E00F0D9FA06
:10259000014669810FF2405011E00D2908DA491C0B
:1025A00029764FF00109287A012804BF0126012469
:1025B000287E00F0C6FA688101460FF2305000F024
:1025C0007BFB1BE0A88840F66312904203DB801E71
:1025D000A88001260124A9880FF224500AE0A888C7
:1025E000B0F51B6F03DA801CA88001260124A9889E
:1025F0000FF2205000F060FBFFF7B6FD300001D075
:1026000000F009FB48EA040459EA04041DD000F074
:10261000FDFA00F094FA287E00F002FB00F08FFA39
:10262000687E00F009FB00F08AFAAB88AA7BA978E3
:10263000687800F00AFB00F082FA36B9E96921B146
:10264000BDE8F44F012000F038BCBDE8F18F082947
:1026500000D0704780B5014608220FF2CC4000F050
:102660003FFC60B9BFF34F8F1C491D480A6802F454
:10267000E06202430A60BFF34F8F00BFFDE701BD78
:1026800010B5144C207848B16178201DFFF7DFFFAA
:102690000121201DFFF7D0FD0020207010BD80B566
:1026A000FFF786FCFFF795FCFFF7B0FCFFF7F9FC9E
:1026B000022300220B49012000F0E7FBBDE80140A6
:1026C00000F036BA60000020A4000010004E0000A8
:1026D000A052000098090020645300000CED00E0B7
:1026E0000400FA05F91F000056312E3000000000EA
:1026F000437573746F6D6572202020202020202088
:10270000203A2025730D0A004D6F64656C20494402
:102710002020202020202020203A2025730D0A0090
:102720004E52463532383430000000004461746542
:1027300020436F646520202020202020203A20257F
:10274000730D0A003230323130353234000000006F
:1027500046572049442020202020202020202020CF
:10276000203A2025730D0A00494320436F646520F9
:102770002020202020202020203A2025730D0A0030
:102780004E524635323834302D424C450000000060
:10279000416C61726D2054656D70202020202020D6
:1027A000203A204E410D0A004E54432054656D706E
:1027B0002020202020202020203A204E410D0A00F9
:1027C000612920547820323430322043570D0A00DA
:1027D000622920547820323434322043570D0A00C5
:1027E000632920547820323438302043570D0A00B2
:1027F0006429205478203234303220313031303165
:102800003031300D0A000000652920547820323420
:1028100034322031303130313031300D0A00000097
:10282000662920547820323438302031303130312C
:102830003031300D0A0000006729205478203234EE
:1028400030322050524253390D0A0000682920547A
:102850007820323434322050524253390D0A00006D
:10286000692920547820323438302050524253396C
:102870000D0A00006A292054782032343032203189
:10288000313131303030300D0A0000006B292054D6
:102890007820323434322031313131303030300D23
:1028A0000A0000006C29205478203234383020315E
:1028B000313131303030300D0A0000006D292052A6
:1028C0007820323430320D0A000000006E29205288
:1028D0007820323434320D0A000000006F29205273
:1028E0007820323438300D0A000000007029204969
:1028F0006E666F0D0A0000007129204D656E750D22
:102900000A000000722920454550524F4D20546561
:1029100073740D0A0000000078292053746F702032
:1029200074782F72780D0A00742920457869740D27
:102930000A00000031296F646420686967682061BB
:102940006E64206576656E206C6F770D0A0000005E
:1029500032296F6464206C6F7720616E6420657625
:10296000656E20686967680D0A00000033295048C9
:102970005920314D0D0A0000342950485920324D5C
:102980000D0A000074782074696D6520203A2025B6
:1029900064206D73202020200D0A000074782070C0
:1029A0006F776572203A2025642064422020202021
:1029B0000D0A0000706B74206C656E20203A202593
:1029C00064204279746573200D0A00006368616EAB
:1029D0006E656C20203A202564204D487A20202006
:1029E0000D0A0000706B742074797065203A2050D5
:1029F00052425339200D0A00706B7420747970654F
:102A0000203A203131313130303030200D0A000091
:102A1000706B742074797065203A20313031303118
:102A2000303130200D0A00000D0A0D0A00000000B0
:102A3000782920526620746573742073746F700D4A
:102A40000A0000003529504859203132354B2C20DE
:102A50004E4F20537570706F72740D0A00000000A5
:102A60003629504859203530304B2C204E6F20539A
:102A70007570706F72740D0A000000003729476589
:102A800074204374756E652056616C75652C204EFC
:102A90006F20537570706F72740D0A007529205481
:102AA000782030730D0A0000752920547820357382
:102AB0000D0A00007529205478203130730D0A006A
:102AC0007529205478203135730D0A00752920545A
:102AD00078203235730D0A002B292B2031644220D7
:102AE0003D202564200D0A0D0A0000002D292D200F
:102AF000316442203D202564200D0A0D0A000000AB
:102B00003C29202D20324D487A203D202564200D7F
:102B10000A0D0A003E29202B20324D487A203D2004
:102B20002564200D0A0D0A00010203040506071C96
:102B300080B500F0BDFA401E8041C00F02BD00F01C
:102B400010BB01460E296FF0FE0044DA2D4A52F800
:102B5000211051B3022926D0032922D004291ED0E6
:102B600005291AD0062916D0072912D008290ED017
:102B7000D8292ED0E22929D0EC2924D0F0291FD041
:102B8000F4291AD0F82915D0FC2910D07047082054
:102B900070470720704706207047052070470420C3
:102BA00070470320704702207047002070476FF085
:102BB000030070476FF0070070476FF00B0070471D
:102BC0006FF00F0070476FF0130070476FF01D003B
:102BD00070476FF02700704738B5044600F0ACFB33
:102BE000684600F0DCFC084D032C04BF286801286F
:102BF00005D1009925A0C1F30E0100F05DF82C600D
:102C000031BD00002C530000C40900200023002225
:102C100000210020E0E70023002200210320DBE761
:102C20000E2808DA20A1085C00F03F0103230222ED
:102C3000C0F38110D0E77047012818BF0228024670
:102C400002D100230221E4E7704738B501281C4671
:102C500007D1A4F66214FE2904EBD47404D1032333
:102C60000DE002280DD1F4E70D0008BF002306D0C7
:102C7000022908BF022302D0012908BF01236110E5
:102C800000E031BD01B0BDE83040A5E75265737585
:102C90006C74292025642053746F704E756D436FDA
:102CA000756E740D0A0D0A0088878685848382807C
:102CB000BCB8B4B0AC9800000EB4C0B5024603A8CE
:102CC00000210190009101AB0121044878440C30AF
:102CD000FDF796FA06BC5DF810FB00BF6327000005
:102CE00001681F2902D84FF0A040704701F01F0172
:102CF0000160014870470000000300502DE9F141D8
:102D000081B0089D099C0E461746984601A8FFF71A
:102D1000E7FF46EA4706019946EA880646EA05269D
:102D200000EB810046EA0446C0F80067BDE8F38185
:102D3000E0B50B460021002201910092FFF7DEFF73
:102D400007BD01B56846FFF7CBFF009901228A4015
:102D5000C0F8082501BD01B56846FFF7C1FF00991D
:102D600001228A40C0F80C2501BD80B51A20FFF76A
:102D7000F2FF0220FFF7EFFF0620FFF7ECFF08202D
:102D8000FFF7E9FF0920FFF7E6FFBDE802400A2050
:102D9000E1E780B51A20FFF7D4FF0220FFF7D1FF4B
:102DA0000620FFF7CEFF0820FFF7CBFF0920FFF733
:102DB000C8FFBDE802400A20C3E780B51920FFF72D
:102DC000CAFFBDE802400720C5E780B51920FFF71C
:102DD000B8FFBDE802400720B3E7E0B500210220BC
:102DE000FFF7A6FF00210320FFF7A2FF0021042028
:102DF000FFF79EFF00210520FFF79AFF0021062024
:102E0000FFF796FF0020019000900023012201218E
:102E10001920FFF773FFBDE80E4019209BE7FEE77E
:102E200070B52E4D2867686F296F88422AD000261A
:102E30001C2171436C18206908B3286F61692269ED
:102E4000401A90421BD3606800B18047207B296FF5
:102E5000C01E012802D9801E02D00EE061610EE082
:102E6000A269106848B161615068A169206101F1EF
:102E70000800A0610068606001E000212161761C0B
:102E8000042ED5D3286F686770BD70B5042801DAA9
:102E90000C0001D1002070BD1C24104D604328445B
:102EA0000678A52E07D04160A52400210470826019
:102EB000037341610161012070BD1C22074B504327
:102EC0001A18107B1161012818BF032803D14FF491
:102ED0007A7041431161186F506170470C080020EF
:102EE00003000020521E22BF13F8010B11F801CB82
:102EF000B0EB0C00F6D0521C08BF10467047FEE73E
:102F0000012200F01F01DFF8EC368A40400943F847
:102F100020207047DFF8E016DFF8E0360320086075
:102F20000022DFF8DC161A600A600123DFF8D426DD
:102F3000136108680028FCD000230B605360136005
:102F4000DFF8C406C380704710B5DFF8BC46E178EF
:102F5000A06900F0A0FB18B101202081042010BD61
:102F6000FFF7D8FFDFF8A416A0690860E078486092
:102F70008B691B0A1B028B618A69DFF8943642F069
:102F800071028A610B6101224A6200230B6240F2E6
:102F900003128A62A2781206032817BF042842F49B
:102FA0008472DFF8700602438A600020DFF868262A
:102FB000CA6010BD0128DFF8642611D11368DFF85C
:102FC00060160B4043F0004343F07D031360DFF8CD
:102FD0005416136C0B4043F0004343F0600305E0CC
:102FE000DFF844161160136C23F00043DFF8181665
:102FF000136448717047DFF83416DFF83436002068
:10300000086001221A6008680028FCD0DFF8241646
:103010000868C0B2704770B50446C046C046DFF8C5
:103020001816DFF81826DFF8185640F25B60486380
:103030008A630023DFF8D02510694000801C4860B7
:103040000326DFF8000608602B60DFF8B005066095
:10305000107954B110B10120FFF7ACFF0020DFF868
:10306000E825E8600121116070BD137E8B6048B1D6
:10307000DFF8D8050121816001600021DFF8D0056B
:103080000160416070BD80B5C046C046DFF868058C
:103090000121016000228260C2600120DFF8B415C6
:1030A0000860FFF737FFDFF860150120087001BDE9
:1030B00070B5DFF8A41500204FF0804308600122AE
:1030C0001A6008680028FCD00023DFF83C45E0695E
:1030D000426000F20451C2600B6000F5A07200254E
:1030E0001560002656609360D5604FF48032C0F8BA
:1030F00004230123C0F800320422CA6040F6C4133E
:10310000CB632B220A64012101606561DFF83C0575
:10311000DFF84855016081602E60DFF834050660F5
:1031200046608660C66040F2E240E8632E64092093
:10313000FFF7E6FE0721E960FFF706FF08B104206C
:1031400070BD607001212170E660DFF81405DFF8C2
:103150001425016841F01001016001201060002079
:1031600070BD2DE9F84FDFF8F804DFF8D4440168AA
:10317000DFF8D0B4DFF8F064DFF8D474DFF8EC8463
:10318000DFF8C4A4DFF8805441F01001016040F280
:10319000E2490DE0FFF70EFF0121CAF83C10CAF822
:1031A000341009200021C8F804107960FFF7A8FE48
:1031B0002878042804BF6068012805D100216160D7
:1031C000287908B101213161E06800285DD0002133
:1031D000E1600120FFF794FE2878042855D10121F1
:1031E000CAF80010287950B1C8F800903F21C8F8FB
:1031F00004100120F0600021396079603060DFF850
:1032000070140A68012A3AD19BF801209BF800004B
:10321000B2F5807F00F00F0031D2E978032918BFA2
:10322000042901D103282AD2062918BF052901D172
:10323000032824D838B9DFF83C140BF10200FFF75B
:103240004FFEE0B918E0012808BF0F2006D0022881
:1032500008BF552002D0032811D1FF20002108E02B
:103260000BF102035FFA81FC13F80C30834206D1A4
:10327000491CCBB29342F3D3E888401CE88040F26B
:103280000111584600F05EFA02E02878042809D1BE
:103290002168012906D100222260287910B1F1604D
:1032A00001203060E96901F5A071086860B1002271
:1032B0000A603868012833D1FFF79DFE697989B12A
:1032C0005F281DDD002019E048680028F1D00022A9
:1032D0004A6095F90A00FFF713FE6869401C6861AF
:1032E000BDE8F28FDFF8901309688AB2102A02D382
:1032F000090C012901D95F2802DA0120FFF75AFEE3
:103300000120CAF83C000121CAF83410C8F8009026
:103310007060F1600020386031600920FFF7F0FD37
:10332000786800283FF444AFFFF765FE5F28ACBF24
:10333000002001202EE70000F8B5B34E0D46317B8A
:103340003561144601F0C00104F03F021143F278E8
:10335000F160032A18BF042A1F4602D1032B08BFBD
:10336000FF27012272704FF0000C3278A6F808C0D7
:103370000AB90520F2BD002861D1FFF784FEDFF80D
:10338000FC025DB9002C43D103220021F270F160F0
:10339000B170026822F000420260F7E0012D04D112
:1033A000032C35D8A401F460F0E0022D2CD1641E6A
:1033B000032CA84DB249B34A2AD8DFE804F0020B27
:1033C00014160321F170002200F0E2F801202860B9
:1033D000002115E00421F170012200F0D9F801204C
:1033E000286000210CE0052300E00623F37003248D
:1033F000B47003681A4011430160806C08B9012160
:103400003171BDE8F1409FE5032D02D1022C11D3AB
:1034100084E0042D03D1002CFAD1062009E0052D0B
:10342000F6D1032CF4D8DFE804F0020602064FF4CC
:10343000FF703081AAE044F290213181A6E0032898
:1034400008D1012A08D0F08840F400403081FFF70D
:103450001AFE9BE0012A03D0012030810220F2BD38
:10346000032B04D0282D02D301203081F2BD00228D
:103470000128F280734B0AD140F20111184600F086
:1034800061F90120FFF7C7FD042030707EE00228BB
:10349000FCD1FF2F0CD15970032CF7D8DFE804F0D2
:1034A00042423902284600F098F800286ED135E0F3
:1034B000FF2903D9012030810320F2BD597047B1A3
:1034C000012F18D0022F1DD0032F1ED0FF2FE3D0C5
:1034D00024E01A70981C0A466649FDF7BFFF0020D9
:1034E000FFF799FDF168F078CA00042827D102F1AE
:1034F0005801490834E0012018700F22981C00F090
:1035000025F9ECE718705522F8E704201870FF221F
:10351000F4E7284600F04BF8002837D1012030812D
:103520000420F2BD0020FFF776FD00F0AFF833492C
:10353000344B0120086018600320307026E0032817
:1035400008BF02F150010BD0052803D1890101F514
:10355000347105E0062812BF1146090101F5E77133
:10356000002001F1F903401C40F2712242439A42CB
:10357000F9D3F0694449C0F8402500F5A070C8604F
:103580000120204A0A610860022131700020F2BD4A
:10359000B270016821F00041016000200AE51A4A7A
:1035A000014650780023537012890A60704738B57D
:1035B000154D044614F0300F287818BF44F0C004AD
:1035C000022805DAE4B2E978204600F064F808B190
:1035D000002032BDAC61012032BD0B4B19780229AD
:1035E00001DB00207047024603F10A0103F11C00D1
:1035F00000F07AB880E200E008F5014000120040D7
:103600001011004000100040400000200C15004048
:103610000029417608018060FF0003003C1700404C
:1036200000FFFF7F8FFFFF7F343000401C11004000
:103630001410004048150040041500405555550031
:103640000011004084060020041000400490004057
:10365000409100401090004000010040049500405F
:1036600010ED00E040E50140009000404095004032
:1036700000140040544B00007415004040170040F7
:1036800000C40080FF00FF7F04F5014027494FF48C
:10369000007008607047082818BF072818D006284F
:1036A00018BF052814D0042818BF032810D00228FA
:1036B00018BF00280CD0FC2818BFF82808D0F42820
:1036C00018BFF02804D0EC281CBFE228D82807D166
:1036D000052918BF062905D0032918BF042901D0E0
:1036E00004207047002070472AB9114A0260082060
:1036F000087001207047012A03D10E4A0260092098
:10370000F6E7022A03D10C4A02600A20F0E7032AF6
:1037100003D10A4A02601A20EAE7042A03D1084AC0
:1037200002601B20E4E700207047000050160040B4
:10373000008000400090004000A0004000A0014038
:1037400000B00140002200F00BB8FEE74018491C11
:103750001CBFB1F1010100F8012DF9D17047FEE75E
:1037600000B500BF130096469446103928BFA0E864
:103770000C50FAD85FEA417C28BF0CC048BF40F823
:10378000042BC90728BF20F8022B48BF00F8012BE3
:1037900000BDFEE781B000224250405800900099E1
:1037A00001B0704740584BE1D0F80403084018BFFF
:1037B0000120C0B2704700F20C5082600160704777
:1037C00000F5A160016082607047D0F81805C0B2B2
:1037D000704701681F2902D84FF0A040704701F0E0
:1037E0001F010160DFF8EC0470472DE9F14181B061
:1037F000089D099C0E461746984601A8FFF7E9FF69
:1038000046EA4706019946EA880646EA052600EB9D
:10381000810046EA0446C0F80067BDE8F381E0B5E0
:1038200000F00BF8012105E0E0B50B460021002275
:1038300001910092FFF7D9FF07BD0021019100918E
:1038400000230122704701B56846FFF7C2FF0099C7
:1038500001228A40C0F8082501BD2DE9F041044647
:103860000D4690462179DFF870042C2212FB01F2FC
:10387000861806F12907787808B108207CE00FF255
:103880007C4050F82110206800F03DFA08B111206A
:1038900072E0286810F1010F04D0FFF7D4FF286808
:1038A000FFF7BDFF686810F1010F1CBF0021FFF793
:1038B000BBFF2068A96900F2245211606B7D297D4D
:1038C0000B4393646A682968FFF775FF287D012818
:1038D00014D1A86810F1010F1CBF0021FFF7A4FF4D
:1038E000E86810F1010F04D0FFF7ADFFE868FFF7BB
:1038F00096FFAA68E9682068FFF762FFC6F80480AF
:1039000029697068316058B32D7F20684FF48E713B
:10391000FFF740FF20684FF4A271FFF73BFF2068DC
:10392000DFF8B813C0F8041300030016690100287B
:1039300007D5DFF8AC2300F00F00104400F8041C9A
:1039400002E0DFF8A023115401222168DFF8983348
:103950000903091601F01F008240490943F821209C
:1039600004202168C1F800050022B261F2613A70BA
:103970007261012078700020BDE8F08138B50D46F5
:1039800004464FF48E71FFF705FFA868296A405C72
:103990002A6A521C2A62C4F81C0531BD2DE9F04187
:1039A000054617462A790E462C20DFF82C13424391
:1039B0008C18284600F03EF808B1112038E0676105
:1039C000A6602062002184F828104FF48E712868C8
:1039D000FFF7E0FE28680121816000262146FFF7FD
:1039E000CDFF606818BB2F68D4F8148003E021462F
:1039F0003846FFF7C3FF206A40450CD24FF48E7162
:103A00003846FFF7CFFE0028F1D194F828000028AF
:103A1000F4D00F2609E028684FF48E71FFF7C2FE3C
:103A20000028F8D029680120C86000206061304675
:103A3000BDE8F0810279A8492C20424388184069EA
:103A400000B10120C0B2704710B500F092F82068B4
:103A50004FF48471FFF79EFE21680120086010BDBD
:103A600070B50D460446A86900284FF484712046BD
:103A700005D1FFF78FFE2046BDE87040A5E6FFF7B1
:103A800089FE6E6A2046FFF7A0FEE9688855686ADD
:103A9000401C686270BD2DE9F04107462C203C793E
:103AA0008D4B44431E19002370684FF4017418B104
:103AB0003D6805F541704460B06960B1F06930B1AE
:103AC000706810B13968C1F8044311204FE03161CA
:103AD0000123F26103E0B261F1607062F36196F874
:103AE0002900034304BF3846FFF7AEFF70683A6809
:103AF000002839D14FF4A2711046FFF74BFE386809
:103B00004FF49271FFF74EFE054638684FF484710A
:103B1000FFF748FE044638684FF4A271FFF742FEF3
:103B2000804648EA04042C43E9D058EA050007D14E
:103B300038683146FFF794FF706AB1698842DED376
:103B40000020B0610DB1032011E0B8F1000F18BFE3
:103B50000F200CD196F829003968002807BF0120F2
:103B6000486001220A6001E0C2F804430020BDE879
:103B7000F08104464FF4927120680BE61FB50346AE
:103B8000012402918DF800400192684619685A6834
:103B900090471FBDF8B5024600238DF80030029112
:103BA000906801905361684611685268904705B06B
:103BB00000BD2DE9FF414D4D4FF400712846464CA4
:103BC0004B4FFFF7F1FD04F128064FF4017810B3D5
:103BD0004FF4927100F090F8E8B14FF492712846DA
:103BE000FFF7D8FDC7F80080707808B90121696037
:103BF00002208DF800003F48016801600391002118
:103C0000A06962680290A161E161E06821680190A9
:103C10006846904729E004212846FFF7C5FD20B3F8
:103C20004FF4847100F068F8F8B121462846FFF798
:103C300017FFA069616A884217D1E06940B1E26864
:103C4000616AA06100232069E060E361636209E0CA
:103C5000707808B901216960C7F800800020E26827
:103C6000A061616A2046FFF789FF4FF48E7100F072
:103C700043F8A8B16069216A814206D2307820B940
:103C800021462846FFF77AFE0AE04FF48E71284657
:103C9000FFF780FD606918B161692046FFF77AFF80
:103CA0004FF4A27100F028F888B14FF4A2712846B1
:103CB000FFF770FD707808B101212960A06930B16B
:103CC0000021A1612046E268616AFFF757FFBDE865
:103CD000FF81000000030050240900208000020042
:103CE00018ED00E000E400E000E100E0002000400A
:103CF0000823004080240040284653E5B33B0000E1
:103D00000D480168084738B50D460C49884211D165
:103D1000002000F01DF8084908790024002811BF90
:103D200001240D6001200871002000F018F80CB18A
:103D3000112032BD002032BDB0090020002000401B
:103D400007490868401E086000D162B6704700004D
:103D500000BF72B602480168491C01607047EFE776
:103D6000C009002081B000224250405800900099C4
:103D700001B07047405835E100F20C5001E000F509
:103D8000A16001608260704701681F2902D84FF06E
:103D9000A040704701F01F010160DFF86C0470471C
:103DA0002DE9F14181B0089D099C0E4617469846C1
:103DB00001A8FFF7E9FF46EA4706019946EA8806A7
:103DC00046EA052600EB810046EA0446C0F8006793
:103DD000BDE8F381E0B500F00BF8012105E0E0B5A6
:103DE0000B460021002201910092FFF7D9FF07BD89
:103DF00000210191009100230122704701B568461E
:103E0000FFF7C2FF009901228A40C0F8082501BDD2
:103E1000F8B504460D46217917462423DFF8EC2334
:103E200013FB01F3D61896F8200008B10820F2BD64
:103E30000FF2044050F821102068FFF764FF08B12A
:103E40001120F2BD286810F1010F04D0FFF7D6FF52
:103E50002868FFF7BFFF686810F1010F1CBF002141
:103E6000FFF7BDFF2068A96900F2245211606B7D45
:103E7000297D0B4393646A682968FFF77DFF287DDD
:103E8000012814D1A86810F1010F1CBF0021FFF711
:103E9000A6FFE86810F1010F04D0FFF7AFFFE86854
:103EA000FFF798FFAA68E9682068FFF768FF776066
:103EB000706829693160002837D02D7F20684FF461
:103EC0008871FFF74FFF20684FF49071FFF74AFFAA
:103ED00020684FF49271FFF745FF20684FF4A271FC
:103EE000FFF740FF00F017F92068DFF82413C0F84F
:103EF0000413000300166901002807D5DFF8142316
:103F000000F00F00104400F8041C02E0DFF8082362
:103F1000115401222168DFF804330903091601F066
:103F20001F008240490943F8212008202168C1F878
:103F300000050022B261F2617261012086F8200062
:103F40000020F2BDF8B5054617462A790C46242014
:103F5000AE4942438E1804F06041B1F1005F28D1B0
:103F6000284600F039F830BB7761B4604FF49071A7
:103F70002868FFF7F7FE28684FF4AC71FFF7F2FEF0
:103F800070692968B36801F24452002713605060D9
:103F900001228A607068C8B928684FF49071FFF7F1
:103FA000E9FE044600F014F80443F5D028B10F27C9
:103FB0000AE01020F2BD1120F2BD29680120C8607E
:103FC00000F006F80028FBD0002070613846F2BDF2
:103FD00028684FF4AC71CDE602798C492420424325
:103FE0008818406900B10120C0B270472DE9F84F30
:103FF00005460E4628794FF0240806F06044DFF8A5
:104000000C9218FB00F0B4F1005F09EB000314D12F
:10401000586800244FF4047A20B12F6807F54177DF
:10402000C7F804A093469A696AB1DA693AB110B147
:104030002868C0F804A3112050E010204EE00124AD
:104040001961584603E0C3F818B0D9600020D86160
:104050004FF488712868FFF785FE28684FF4A27135
:10406000FFF780FE296801F2345000270660C0F88F
:1040700004B014B90120086005E0D1F8002242F034
:104080002002C1F8002209F104022B7918FB03F386
:10409000D05800BB2E4630684FF48871FFF76AFE97
:1040A000044630684FF4A271FFF764FE054630689D
:1040B0004FF49271FFF75EFE2C430443EBD032794C
:1040C00009F1180118FB02F841F8087000B1032744
:1040D0001DB10F2701E0C1F804A33846BDE8F28FF7
:1040E0001FB50346012402918DF8004001926846F5
:1040F00019685A6890471FBDF8B5024600238DF82D
:1041000000300291906801905361684611685268CE
:10411000904705B000BD20684FF4AC7122E67FB532
:104120003F4E4FF4927100F083F8384C3D4DB0B1E2
:104130004FF4927100F07EF802208DF800003A48AA
:104140000168016003910021286862680290A16102
:10415000E161E06821680190684690471FE04FF4F4
:10416000887100F065F8D0B14FF4887100F062F802
:104170002968A069814212D1E268E06958B12B48F0
:10418000036823F020030360E0692369A061E36012
:104190000020E06100E0A0612046FFF7A1FF4FF49E
:1041A000A27100F045F868B14FF4A27100F042F836
:1041B000A06938B10021A161E16120462968E26867
:1041C000FFF78EFF4FF4907100F032F858B14FF4C2
:1041D000907100F02FF80121F160606918B1296930
:1041E0002046FFF789FF4FF4AC7100F021F848B189
:1041F0004FF4AC7100F01EF8606918B129692046CF
:10420000FFF77AFF7FBD0000000300505009002037
:104210001003420018ED00E000E400E000E100E0DF
:10422000002000403C250040802400400022004047
:1042300030469FE5304695E51F41000038B50578CA
:104240007A4C635D23B1BDE83840001DFFF77ABEAC
:10425000BDE838400C30FFF7A1BB38B50578734C8A
:10426000635D23B1BDE83840001DFFF7BFBEBDE868
:1042700038400C30FFF70FBC01468868C968081A3F
:1042800070473EB502786A4C002A31D0022A26D007
:1042900042D2017AE9B14068017804F1180000F0D7
:1042A0000BF9A56A20B101228DF80020019007E0EA
:1042B00004F11800FFF7E0FF20B100208DF80000A6
:1042C0006846A84704F11800FFF7D6FFA18B81428A
:1042D00002D300F07FF837BD0120207037BD0221E6
:1042E0008DF800100122C068019000F074F810E011
:1042F00004F12C0104F1300000F0EBF830B9012298
:1043000004F12C01201DFFF799FF37BD03208DF824
:1043100000006846A16A884737BD0000F8B5444EE2
:1043200005460C0088B01F46B26208BF07203CD08B
:104330006268216892B206F1180000F0AAF8A0BBEA
:10434000E268A16892B206F1300000F0A2F860BB0A
:104350004FEA0D0038A12022FDF780F86869069029
:10436000297C01B101218DF814108DF81C70687C36
:1043700000B10E208DF815002E4AE8680290A8685A
:104380000390301D2968019169680091694600F029
:10439000C1F850B93070296811F1010F05D0012220
:1043A00006F12D01301DFFF758FF09B0F0BD70B5C3
:1043B0001F4C2678014604F1180000F08AF80546E3
:1043C00036B10020207000F005F808B100F0D2F8F6
:1043D000284670BD012204F12D01201D3DE738B5AE
:1043E0000146134D05F1300000F066F804001BD1C2
:1043F0002A790E49885C20B105F10800FFF7ECFD31
:1044000003E005F11000FFF715FB68B905F12C0179
:1044100005F1300000F05DF830B9012205F12C0102
:10442000281DFFF70BFF0446204632BD740900200B
:104430000000002083420000FFFFFFFFFFFFFFFF9F
:10444000FFFFFFFFFFFFFFFF000000000000000074
:104450000000D6010601000010B50368C468828818
:1044600014401955C168491CC16010BD10B50368DE
:1044700084688088611801405B5C137010BD10B5C2
:104480000A4604460021FFF7F1FFA068401CA06027
:1044900010BD10B509B90E2010BD130002D0541E76
:1044A000144201D0092010BD0160511E81800022FC
:1044B0008260C260002010BD10B58268C368848825
:1044C0009A1A944203D3FFF7C7FF002010BD0420BF
:1044D00010BD80B58268C3689A1A03D0FFF7CFFF7A
:1044E000002002BD052002BDF8B500E0F8B5027855
:1044F0008DF800204368019382688DF80820C06819
:10450000194A039002EB81026846D16852689047CD
:1045100005B000BDF8B5044688B02678124F07EB09
:104520008600154645600A69C2602022487FB8555A
:104530006846FCF793FF04962678B85D40B1002DDD
:1045400014BF0A4A00226946201DFFF761FC08E0FB
:10455000002D14BF064A0022694604F10C00FFF743
:104560007CF909B0F0BD000074090020E9440000A6
:10457000ED4400001FB5694600220023002481E8B5
:104580001C0002906A46002144F2010000F002F88B
:104590001FBDFEE772B609480168CA0700D500BE14
:1045A000BFF34F8F064907480A6802F4E0620243EE
:1045B0000A60BFF34F8F00BFFDE700BFF0ED00E0E2
:1045C0000CED00E00400FA0581B000224250405892
:1045D0000090009901B07047F8B50C4606460C21D2
:1045E000337959484B43C518287A08B10820F2BDE1
:1045F0002A6000276068686007E04FF4A072FBB291
:1046000002EB8301FFF7E0FF7F1C72793068F9B29B
:104610009142F2D3E178000B490142B2002A06D55B
:104620004A4A00F00F00104400F8041C01E0484B17
:10463000995401233168474E00F024F846F822309F
:104640006078D1F8042500F017F8C1F80405A078C7
:10465000D1F8082500F010F8C1F808052078D1F845
:104660001025120900F00F0040EA0210C1F81005F1
:10467000012028720020F2BD920800F0030040EAF9
:10468000820070470A0B02F01F0052B283405209A9
:10469000704702682C4B012111600222FFE701796B
:1046A0000C204143581802727047F8B504460E4674
:1046B0004FF4803720681546B7404BB14FF4A072D5
:1046C00002EB8601FFF780FF2268C2F8047301E065
:1046D000C0F80873206800EB8601C1F84055F1BDB1
:1046E000F8B51C460568069BD5F8006240F2011734
:1046F0008F40BE43C5F80062D5F800623443C5F868
:10470000004201B0BDE8F040CFE7F8B500260E4CFE
:10471000114D4FF4A07101EB86073AB2A85870B161
:104720000E4908684FF48032B240104207D039B2C7
:104730002846FFF749FF6168226838B29047761C27
:10474000062EE6DBF1BD0000A409002018ED00E014
:1047500000E400E000E100E000B0014004B30140EB
:1047600030B54A4800210160416000204849086096
:10477000484949480A6802604B6843608A68826019
:10478000CB68C3600A6902614B6943618A6902624E
:10479000CB6943620A6A82624B6AC3628A6A0263B5
:1047A000CB6A43630A6B02644B6B43648A6B82641B
:1047B000CB6BC364096C016538490868082804BFDD
:1047C0004868002802D13648364A02600B68082B38
:1047D00004BF4868002802D13348FB2202600B68FE
:1047E000082B04BF4868002809D13048304B0268C4
:1047F0001C78120904F00F0444EA021202600868EF
:10480000082804BF4868002803D12A484FF40071E3
:10481000016029480168CA0744BF6FF001010160C7
:104820002649C86F40F47000C867BFF34F8FBFF3CD
:104830006F8F234A106800285CBF506800281CD581
:10484000204B01241C60204C00F042F8122515601A
:1048500000F03EF8556000F03BF800221A6000F0CE
:1048600037F8BFF34F8F0A68184802F4E06202433A
:104870000A60BFF34F8F00BFFDE7024A0249116093
:1048800030BD0000800000200090D0030C010040EB
:10489000380500400404001020C50040300100101D
:1048A0008C5600404881030018F50040E40E00409B
:1048B0005802001040960240000400400CED00E059
:1048C0000012001004E5014000E401400400FA0574
:1048D00020680028FCD0704710B50446AFF3008074
:1048E000204600F005F80446AFF30080204610BDD6
:1048F00070B500F10F04E408E400A0422CD2082CAB
:1049000004D2082402E0083000F046F8DFF8FC206A
:104910001368190005D1002007E00568A5420DD2F3
:10492000011D08680028F8D11868111D00E0191D44
:104930000B6883420CD01D68A542F8D361B10B68A7
:104940001868A0F10805A54208D2586808600DE073
:1049500000F05EF80028D6D1002070BD1D190D6052
:10496000001B5E686E600D6828601C600968002985
:104970001DBF48680028081D0020106003F10800D2
:1049800070BD10B5040006D0AFF30080204600F0E3
:1049900003F8AFF3008010BD002800D1704770B459
:1049A000A0F108021368072B2ED913F0070F2BD1A3
:1049B000DFF85840616809B18A4203D251606260F1
:1049C00015E00146486808B19042FAD308680E180D
:1049D000B24219D3964203D11B180B600A4606E077
:1049E000486810B1134498420ED350604A60506832
:1049F00050B11368D518854206D10026266001689B
:104A0000CB1813604068506070BC7047B809002034
:104A10000749086808B1002070470648C008C00070
:104A200008600549C908C900091A0160704700BF3C
:104A3000D0090020DF290020D849002038B50178AE
:104A4000022918BF012903D14068FFF793FD31BD4A
:104A500061BB6846FFF7ABFC40BB334D334C687815
:104A600018B901216970287002E02978802909DAD3
:104A700028789DF800102154401C28700A2100203D
:104A8000FEF71BFA2978802902DB02226A7002E015
:104A9000687802280AD16A680AB120469047002047
:104AA0006870287081212046FEF74CFE31BD38B574
:104AB0001D4C1E4D62680220607012B1217828469C
:104AC00090470022627022702846BDE83440812160
:104AD000FEF738BE70B58AB0044604A817A1124D7F
:104AE0001822FCF7BBFC8021019105F188024FF4EC
:104AF00080610292039105F10806009607230C4A93
:104B0000694604A8FFF70AFC08B1FFF733FD09491D
:104B10000C2008606C600223002207490020FEF789
:104B2000B4F90AB070BD0000FC0100208807002025
:104B30003D4A00001C070050AF4A0000070000007B
:104B4000050000000B00000028000000000000002D
:104B50000000D601FFC1FBE84C90728BE7B351898E
:104B600063AB232302841872AA612F3B51A8E53757
:104B700049FBC9CA0C18532CFD45E39AE6F15DB018
:104B8000B61BB4BE2A50EAE90E9C4B5E5724CCA15A
:104B9000B759B887FFE07D742648B9C5F3D9A8C4D2
:104BA000B1D5911101420C39D5B0979D28D4F29B13
:104BB000A4FD6465068C2996FEA2714DF3F82E586B
:104BC000DB0D5A5F1528F57407CE25AF2B12E6D002
:104BD000DB2CDCC37FF03E3A13A4DCE2F96C54E238
:104BE000D8EAC8880021869C6AD8CB4E146AF94D51
:104BF000D27EB23203C6144B7FD1B8A6797C17ACF3
:104C0000ED06ADAF0A947ABA03E792D7150973E8B7
:104C10006D16EEE13F781F9D09526EF17C362A71C8
:104C20006C7564448010434E35EC65270AB5FC264C
:104C3000693F599901638AA5BF685CD33CBE0BD616
:104C40007683D657054A3DDD8173C9EB8A8439F4F2
:104C5000360BF7002DE9F04107468846387810F00A
:104C6000030F16461D4633D0384600F099F878BB3E
:104C7000B8F1000F1CBFD8E900018619012D2ED113
:104C80003888C10415D5396A07F14402384600F066
:104C9000A3F83A6B044602B93A69F968384600F05D
:104CA0009BF8361B341A7A69F968384600F094F894
:104CB000261A1EB94DB916F1010F09D097F9030054
:104CC0002A4631464FF0FF30064616F1010F09D152
:104CD0002320AFF300804FF0FF30BDE8F081022DBC
:104CE000E8D1EBE7388810F4405F0ED07868F860C0
:104CF00038617861B86107F144017868F861396218
:104D000007F13000002178623963B8F1000F05D057
:104D1000D8E9020107F13402C2E900013B884CF6F0
:104D2000FF6003403B800020BDE8F08170B5054680
:104D3000AFF30080288881042DD56E68002400E040
:104D40000644EA6895F903003146914208D2521AA6
:104D500000F048F810F1010F09D00028F0D106E06A
:104D60000022002100F03EF810F1010F00D10124D3
:104D70006868E860A861E861298844B141F400717D
:104D800029802846AFF300804FF0FF3070BD4DF60C
:104D9000FF70014029802846AFF30080002070BDDD
:104DA000F8B5A0B9AFF3008000250A4E08244FF0F3
:104DB000FF37306820B1FFF7B9FF002848BF3D46F4
:104DC000361D641EF5D1AFF300802846F2BDBDE864
:104DD000F240ABE7DC010020914234BF511A0021C0
:104DE0000846704770B50C461546002604E014F8D6
:104DF000010BFFF7F4FA761CAE42F8D3284670BDDB
:104E00000D0A2A2A2A2A2A2A2A2A2A2A2A2A2A2A3F
:104E10002A2A2A2A2A2A2A2A2A2A2A2A2A2A2A2AF2
:104E20000D0A00002A204C4453204D6F64756C65B8
:104E3000204576616C756174696F6E20546F6F6C7C
:104E4000202A200D0A000000536F66747761726596
:104E50002056657273696F6E203A2053564E3D2579
:104E6000732C204150503D25730D0A004F544120B2
:104E7000496D61676520496E666F2020203A2046A3
:104E8000696C65205665723D4E412C496D616765C0
:104E900020547970653D4E410D0A00004D6163411B
:104EA000646472202020202020202020203A2030FE
:104EB00078253032782530327825303278253032F6
:104EC0007825303278253032780D0A0010B5044646
:104ED000E068A169884251D3218849F202030B405E
:104EE000022B08D008044CBF4FF400704FF48440EC
:104EF000014321803BE001F4C042B2F5C04F06D12E
:104F0000A168884203D32046FFF74AFF78BB208878
:104F100010F4406F02BF606804F14401884217D169
:104F20004FF40070FFF7D8FC606030B904F1440022
:104F30006060E060401CA0600AE0218841F0400110
:104F40002180E060606100F500726068A260E0614D
:104F50006068A1682061A161207841070AD502221A
:104F60000021204600F00CF810F1010F02D14FF0A3
:104F7000FF3010BD208840F4C0402080002010BDCC
:104F800070B504460D461646AFF3008033462A46F8
:104F900000212046FFF75EFE05462046AFF3008065
:104FA000284670BD82B001780A062FD523490B68C8
:104FB00000930022834203D1002341F8223022E0F3
:104FC0004B680093012283421FBF02228B6800932B
:104FD0008342F1D0CB680093032283421FBF042297
:104FE0000B6900938342E7D04B690093052283420B
:104FF0001FBF06228B6900938342DDD00722CB6955
:1050000000938342D8D002B000F01AB8002101808A
:105010004FF0FF3200F14401C270C1604161C161D3
:1050200000F1440300F1440200F1300143600261E9
:1050300082610262416202B070470000DC01002020
:10504000FFF79FBC38B504000ED0207810F0030F96
:1050500003D094F90300002809D5AFF3008020465F
:10506000FFF7A0FFAFF300804FF0FF3032BD2046C6
:10507000FFF796FE0546AFF300802078410644BF57
:105080006068FFF7DDFF0020606094F903000228EC
:1050900004D90020C04608B14FF0FF35E06B48B19D
:1050A0000020C04608B14FF0FF35E06BFFF7C8FFA6
:1050B0000020E0632046FFF775FFAFF3008028462D
:1050C00032BDFEE7B0F5A07F03D116480168491C48
:1050D00001607047FEB5044617A000BF14A5124A30
:1050E000D0E90067CDE9016701A92846FFF774FA06
:1050F00008B1FFF73FFA0D480268012300934FF40F
:105100007A50A0FB040100F01BF8024601230021A5
:105110002846FFF7E5FA2846FFF7BBFAF7BD014836
:1051200000687047C8090020C550000010B5014054
:1051300000B001400006000000000306000000006F
:10514000D2B2203A22BF21FA02F000217047203269
:10515000D141D04048409140D14048407047F0B4E0
:105160000246106895681318506803EB5004C00796
:105170001CD54D441AE013F8017B05F8017B491E4C
:10518000F9D198B113F8011BC6F38106032E08BFAD
:1051900013F8016B01EB06214942801C294405D01C
:1051A00011F8016B05F8016B401EF9D1A3420ED036
:1051B00013F8016B16F0030104BF13F8011BC91C9F
:1051C00030090F28DBD113F8010B0F30D7E7F0BC03
:1051D00002F10C007047FEE780B51748FFF77AFC34
:1051E000FDF7FBFD0120FFF775FFBDE80140FDF76E
:1051F00056BA10B5114CFFF792FF2060FFF78FFFF2
:1052000021686060884211D0401AA060FFF787FFD4
:1052100020606068FDF704FEE068A1680818E0609F
:1052200040F2E932904224BF0020E060FDF787FCA5
:10523000FDF726FAE2E70000F321000088090020CC
:1052400080B5FFF7C9FFBDE80140D2E738B50C468D
:10525000C5B22046AFF30080E068A169884204D35C
:105260002046FFF733FE00280FD4E068401CE060C2
:1052700000F8015D2088010503D440050BD50A2DF7
:1052800009D12046FFF78CFD28B12046AFF30080FE
:105290004FF0FF3032BD2046AFF30080284632BDCC
:1052A0004D61634164647220203A203078253032A9
:1052B00078253032782530327825303278253032F2
:1052C0007825303278200D0A00000000706B7420C1
:1052D00074797065203A20556E6D6F64756C6174D9
:1052E00065642063617272696572200D0A000000B6
:1052F00038B50D4D0824286800281CBF017811F02E
:10530000030F05D090F90310002958BFFFF79AFE4C
:105310002D1D641EEFD1BDE83840002200214FF062
:10532000FF30FFF75FBD00BFDC0100200800000078
:105330000700000006000000050000000400000057
:10534000030000000200000000000000FC0000005C
:10535000F8000000F4000000F0000000EC00000085
:10536000D80000003829456E746572204374756E4C
:10537000652043616C6962726174696F6E204D6F64
:1053800064652C204E6F20537570706F72740D0A17
:105390000000000010B5074979441831064C7C44E0
:1053A000163404E00A68081D114488470146A142EA
:1053B000F8D110BD2C000000480000004EF68851C6
:1053C000CEF20001086840F470000860BFF34F8F10
:1053D000BFF36F8F4FF00070E1EE100A70470000CE
:1053E000E7BEFFFFD8070000FC010020000000001E
:1053F0006FFDFFFFCC0000002C010000000000202A
:10540000FEE700000120C046002801D0FFF7C2FFE0
:10541000AFF300800020AFF3008000F002F800F04E
:1054200005F880B5FFF70CFF002002BD00F000B8C2
:105430000746FFF75DFF3846FCF7B4FDFBE738B5DC
:1054400004460D46284600F005F8A84218BF00247F
:10545000204632BD0149FFF7F9BE00BF4C010020D4
:10546000014880470148004761470000715400002F
:10547000AFF30080FFF7A2FFFFF7C4FFFEE7FEE7F0
:10548000FEE7FEE7FEE7FEE7FEE7FEE7FEE7FEE7F4
:10549000FEE7FEE7FEE7FEE7FEE7FEE7FEE7FEE7E4
:1054A000FEE7FEE7FEE7FEE7FEE7FEE7FEE7FEE7D4
:1054B000FEE7FEE7FEE7FEE7FEE7FEE7000000008E
:1054C00062000130012000400C6108F11901420323
:1054D00030F2010837F20A804C52011AF0050790A9
:1054E000D003BC5400000452FF01E3121514400223
:1054F00000004215472284B6F1160143A5132A8302
:10550000931383100701040000480100204904524E
:105510004804211BA108F311340164200A0204018C
:1055200001D4080020240900200821042134610846
:10553000129044F2137C48500208020284405284C4
:10554000042134610812D844F212C448120424120F
:065550004C04F206942C4D
:040000050000547132
:00000001FF
